:1000000012C073C02BC02AC029C028C027C026C078
:1000100025C024C023C094C221C020C01FC01EC060
:100020001DC01CC01BC011241FBECFE5D4E0DEBF25
:10003000CDBF10E0A0E6B0E0ECE6F8E002C005902D
:100040000D92A636B107D9F721E0A6E6B0E001C0CF
:100050001D92A332B207E1F753D306C4D1CF27B321
:10006000242B27BBE42FE0959B01220F331F260F83
:10007000371F50E0DC0180913800482BE8232150E5
:10008000304088F05D9188E04093380000C0550F03
:1000900008F0E093380000C000C08A95E093380073
:1000A00071F300C0F1CF0895BA9A87B3886287BB15
:1000B00080E58DB9089589B990BD86E880BD579ACD
:1000C0008AB188618AB908955F9BFECF8CB108958B
:1000D0005D9BFECF8CB9089585B7826085BF8BB7D5
:1000E00080648BBF8A98929A08951F920F920FB6E0
:1000F0000F9211242F933F938F939F9380916B00C6
:1001000090916C0081159C4318F58091620090914C
:1001100063000697E8F020916B0030916C0080E05E
:100120009CE3821B930B8138924030F480916200F3
:1001300090916300059726C08091620090916300C2
:100140004F9720F180916200909163004E971AC002
:1001500080916B0090916C0081309C43B8F080914D
:100160006B0090916C009C538138924030F48091E8
:100170006200909163000A9605C0809162009091A0
:1001800063004E96909363008093620010926C001F
:1001900010926B0080E09EE1909365008093640074
:1001A00085B3809585BB9F918F913F912F910F9043
:1001B0000FBE0F901F901895C29826E02FB9779B1D
:1001C000FECF2FB1C29AC29822E02FB9779BFECF03
:1001D0002FB1292F332727FD3A952FB9779BFECFD3
:1001E0009FB18FB9779BFECF8FB1FA0180E090E08D
:1001F00070E011C020812FB9779BFECF2FB12181F4
:100200002FB9779BFECF2FB122812FB9779BFECFDD
:100210002FB1019633968617970764F3C29A2FEF92
:1002200089EF90E0215080409040E1F700C000004D
:1002300008952F923F924F925F926F927F928F928A
:100240009F92AF92BF92CF92DF92EF92FF920F9365
:100250001F93CF93DF93CDB7DEB765970FB6F894B2
:10026000DEBF0FBECDBF9D8B8C8B7E876D878A01D5
:1002700097FD0196AC015595479558874F83EC89BA
:10028000FD89F7FD3196F595E795F195E195F10931
:1002900080EF90E06C897D89C0D2F62E8FE7689F51
:1002A000302C1124C62ECC0CD62ED194DD0C4DEF63
:1002B0004003C001419F900D11249B8B8A8B502ECF
:1002C0005194569E902D11249B87359C502C1124BF
:1002D0005C866E9FA02D1124A98BE01BF10B6E9FF5
:1002E000B02D1124BF87EC89FD89E00FF11FFA873B
:1002F000E9876E9FF02D1124F88B29833A83412CD6
:10030000512CEEC0C2016D857E8587D2A901481BA4
:10031000590BCA016D857E8580D2892B09F0ABC04F
:100320008F819885281739070CF057C0AC89BD8993
:100330002A173B076CF4EB81FC8110828E2D880F0D
:10034000D3018C938E2D880F8095ED81FE81808363
:1003500002171307B4F5C901801B910BAA89BB8949
:10036000A60DB71D8B848E0C880C6C856E19660FDC
:10037000912C70E040E050E0615011C097FD0AC040
:10038000FD01E40FF51F1282272E280C2082262E55
:10039000290C218201964D5F5F4F7C0D9D0C8217C9
:1003A000930764F375C01082DF011297652F6D0DFE
:1003B0006C93DF011197642F6C0D6C93019633964B
:1003C00006C0E1E7F0E04FEF50E080E090E05C0D28
:1003D0004D0D821793073CF35BC04C895D89241750
:1003E000350764F4ED81FE81108289898E0DEB81E1
:1003F000FC8180838B2D8150D3018C93C901801B9C
:10040000910BFC01EE0FFF1FE80FF91FEF58FF4F94
:100410006B856E0D7C857A0D9F849E0C88888B0C75
:1004200050E040E024C097FD1EC0AF81B8858A1718
:100430009B0774F41082DF011297242E260E220CE3
:100440002C92DF011197272E241A220C2A940AC01D
:10045000DF0111971C92A42FA90DA083DF01129731
:10046000252E280C2C92019633964F0D5F1982177A
:100470009307CCF20DC0EC89FD892E173F0744F499
:10048000EB81FC811082D3011C92ED81FE811082F0
:100490002F5F3F4F4B815C814D5F5F4F5C834B8390
:1004A00053E0650E711CED81FE813396FE83ED8372
:1004B000EF0CA30CBF1849855A85241735070CF497
:1004C00021CF4FE650E06C8989819A8175DE898160
:1004D0009A81805C9F4F9A8389839FEF491A590ABA
:1004E000AC89BD894A165B0694F4EFE66E2EE0E017
:1004F0007E2EE0E7F0E0FE83ED8341E750E05C8391
:100500004B83B12CA12CE12C20E030E0D4CF6596B8
:100510000FB6F894DEBF0FBECDBFDF91CF911F9114
:100520000F91FF90EF90DF90CF90BF90AF909F9092
:100530008F907F906F905F904F903F902F90089595
:100540001F920F920FB60F9211242F933F934F9348
:100550005F936F937F938F939F93AF93BF93CF934B
:10056000DF93EF93FF93B0DD8093680080916D007F
:1005700090916E00892BD1F4809168008F3F09F033
:100580007FC081E090E090936E0080936D001092A8
:100590006A00109269008FE690E09093610080936A
:1005A000600010926700109266006AC080916D0032
:1005B00090916E00019709F063C085B3809585BB6B
:1005C000E0916000F09161008091680080838091EB
:1005D00060009091610001969093610080936000AB
:1005E00080916600909167000196909367008093D8
:1005F000660080916600909167008A35910509F048
:100600003FC08091690090916A004FE650E06EE132
:10061000D3DD8FE690E090936100809360001092AC
:100620006700109266008091690090916A0080587E
:100630009F4F90936A00809369008FEF49DD80910E
:10064000690090916A0081159C43D1F4CEE1D0E01D
:100650008091690090916A004FE650E06EE1ACDD58
:100660008091690090916A0080589F4F90936A0032
:1006700080936900219761F710926E0010926D00CF
:10068000FF91EF91DF91CF91BF91AF919F918F91AA
:100690007F916F915F914F913F912F910F900FBE7E
:1006A0000F901F901895C29823E02FB9779BFECF2B
:1006B0002FB1292F332727FD3A952FB9779BFECFEE
:1006C0009FB18FB9779BFECF8FB1FA0180E090E0A8
:1006D00070E011C01FB8779BFECF2FB120831FB8E9
:1006E000779BFECF2FB121831FB8779BFECF2FB111
:1006F0002283019633968617970764F3C29A08956A
:1007000084B38FEF84BB8FE085BB2FEF83ED90E345
:10071000215080409040E1F700C000007894C4DC94
:10072000DBDC80EA91E0C7DCC29886E08FB9779B7A
:10073000FECF8FB1C29A2FEF83ED90E3215080401E
:100740009040E1F700C0000010926C0010926B0026
:1007500010926C0010926B0080E09EE190936C0010
:1007600080936B0080916B0090916C0081159B448D
:10077000C8F7C8E780916B0090916C004FE650E09D
:100780006EE191DF41E06EE170E08FE690E067DCC2
:10079000809164009091650081309C4348F0809185
:1007A0006400909165009C53909365008093640071
:1007B00080916400909165004FE650E06EE173DF38
:1007C00042E06EE170E08FE690E049DC80916B00E2
:1007D00090916C0080589F4F90936C0080936B00B9
:1007E000809164009091650080589F4F90936500C0
:1007F0008093640080E090E005C02AE22A95F1F73A
:1008000000C0019620916200309163008217930727
:10081000A0F3C15009F0AECFA5CF97FB072E16F479
:10082000009406D077FD08D00BD007FC05D03EF42D
:10083000909581959F4F0895709561957F4F08958C
:10084000AA1BBB1B51E107C0AA1FBB1FA617B707F6
:1008500010F0A61BB70B881F991F5A95A9F7809512
:0C0860009095BC01CD010895F894FFCFE5
:06086C006F00B400001E45
:00000001FF
