:1000000012C02CC02BC02AC029C028C027C026C0BF
:1000100025C024C023C022C021C020C01FC01EC0D4
:100020001DC01CC01BC011241FBECFE5D4E0DEBF25
:10003000CDBF10E0A0E6B0E0E4E9F0E002C005903A
:100040000D92A036B107D9F710E0A0E6B0E001C0EC
:100050001D92A036B107E1F711D01AC0D1CF89B9EE
:1000600090BD86E880BD88E18AB908955F9BFECF88
:100070008CB108955D9BFECF8CB90895789483E38D
:1000800090E0EDDF87B38FEF87BBF0DF88BBFDCF5C
:04009000F894FFCF12
:00000001FF
