:1000000012C02CC02BC02AC029C028C027C026C0BF
:1000100025C054C023C022C021C020C01FC01EC0A4
:100020001DC01CC01BC011241FBECFE5D4E0DEBF25
:10003000CDBF10E0A0E6B0E0EEE1F2E002C0059036
:100040000D92A036B107D9F713E0A0E6B0E001C0E9
:100050001D92A533B107E1F7B3D0DFC0D1CF5F9BCD
:10006000FECF8CB108951092640010926300880F47
:10007000991F880F991F2091630030916400281701
:100080003907CCF310926400109263000895109227
:1000900064001092630012BE2091630030916400EE
:1000A00042B7322F2227240F311D28173907A4F316
:1000B000109264001092630012BE08951F920F9276
:1000C0000FB60F9211248F939F93809163009091AC
:1000D0006400019690936400809363009F918F91D8
:1000E0000F900FBE0F901F90189589B7816089BF40
:1000F00083B7816083BF0895CF92DF92EF92FF9222
:100100000F931F93CF93DF9398B321E030E07901F1
:1001100002C0EE0CFF1C4A95E2F79E2998BBA9018C
:1001200002C0440F551F6A95E2F7D42EC42EC09426
:10013000C0E0D0E0082F10E0C8010C2E02C0959559
:1001400087950A94E2F780FF14C088B38D2988BB95
:1001500081E090E09CDFC29A81E090E098DF88B374
:100160008C2188BB81E090E092DFC29881E090E032
:1001700007C0C29A82E090E08ADFC29882E090E0F5
:1001800086DF2196C830D105B9F688EC90E07FDF94
:1001900088B3E094E822E8BADF91CF911F910F91E4
:1001A000FF90EF90DF90CF90089589B990BD86E8D9
:1001B00080BD88E18AB908955D9BFECF8CB9089512
:1001C000789483E390E0F1DF8FEF87BB8EDFA5E6C5
:1001D000B0E0EDECF1E080E090E02FEF2D93219383
:1001E000019631E088369307C9F7C59ACFE2D0E08F
:1001F0008C2F63E070E044E050E07EDF8C2F60E005
:1002000070E041E050E078DFC59888EE93E02BDFA6
:0E021000C59A88EE93E027DFEBCFF894FFCF7E
:00000001FF
